:040000008031132810
:100008007E1480318B1D09280A2811280B1C0D2805
:100018000E2811288231962280317E100900803105
:1000280015289F308400823085002A3086000030F1
:10003800870008308231A7228031FD01A001A1018B
:10004800A201A301A401A501A601A701A801A90174
:100058007E1020008031FE28F4017435203E860091
:100068008701403FF700413FF80007307802D03061
:10007800031977020318412842284328FD285530E0
:100088007802F13003197702031C4B284C284D28BD
:10009800FD2874352A3E86008701403FF500413F20
:1000A800F6007508760403195A285B2899287608FB
:1000B8007802031D612875087702031864286528EB
:1000C8007A2877087502F2007808763BF30000304A
:1000D8007302C93003197202031C732874287A2822
:1000E8007508383EF700FF30763DF800780876024C
:1000F800031D802877087502031883288428992807
:1001080075087702F2007608783BF3000030730236
:10011800C93003197202031C92289328992875087C
:10012800C83EF7000030763DF80074352A3E860058
:1001380087017708C03F7808C13F0130F200720894
:10014800F40704307402031CAA28AB283128E030D5
:10015800200022062E3003192306031DB428B528D3
:10016800C228E03024062E3003192506031DBD28B9
:10017800BE28C22822000C158E14C52822000C1196
:100188008E1020002B08F1002A08F0008231C522C9
:10019800803120002D08F1002C08F0008231BF22A8
:1001A800803120002F08F1002E08F0008231B9229A
:1001B800803120003108F1003008F0008231B3228C
:1001C80080318231E42280318231DE2280318231F5
:1001D800D82280318231D22280318231E1228031AD
:1001E8008231DB2280318231D52280318231CF22A7
:1001F80080310800823165228031A0302000B200B1
:100208000130B3008231AD2280318131D321803178
:1002180022008E160E150C168B170B178E1705302D
:100228002000B5000F30B400F130890B1929B40B48
:100238001929B50B192922008E13640020002908FA
:10024800031D272928293C298C1E2B292C293A29CA
:100258000130B4003408A8070A302802031C3529E5
:1002680036295729A801A901A90A5729A8015729F8
:100278002903031D4029412953298C1E4429452956
:1002880046293A290130B4003408A8073230280238
:10029800031C4F29502957290230A9005729220049
:1002A8000E118E120C1268302000B400E430890B55
:1002B8005B29B40B5B290000212980311328220017
:1002C8008C018D018E012A3021008C008D0158305F
:1002D8008E0023008E018D0102308C0024008D01D8
:1002E8008C018E012100951725008C018D018E014E
:1002F800373026008C00F0308D00FF308E003F3004
:1003080027008C00F0308D00FF308E001912181273
:100318001716E7302000B2000230B3008231AD2258
:1003280081318B1504303D00A00006309D0005305A
:100338009C00033090000800FC01FA01FB0120003A
:100348008E1DA729A829A3290310FA0D8E19AD29F6
:10035800AE29AA290E0E890C890C0139F9007908F1
:10036800FA040130F9007908FB0708307B02031C06
:10037800BE29BF29A3297C08203E860087017A0868
:1003880081000130F9007908FC0708307C02031C61
:10039800CE29CF29A1298031302081310800D030E1
:1003A8002000AA003930AB002B08A1002A08A000C1
:1003B80002302A3E86008701E030C03F2E30C13F20
:1003C800E030A2002E30A30004302A3E86008701C8
:1003D800E030C03F2E30C13FE030A4002E30A500F1
:1003E80006302A3E86008701F030C03F2330C13FE7
:1003F800F030A6002330A70008003B00CC01CD0157
:100408002030CE00CF01D001C201C1012E30C4007E
:100418001430C300FF30C600FF30C500C8010130EA
:10042800C700CA01C9018030CB0008003B00BC01ED
:10043800BD012030BE00BF01C001B201B1012E30A4
:10044800B4001430B300FF30B600FF30B500B80177
:100458000130B700BA01B9018030BB0008003B0089
:10046800AC01AD012030AE00AF01B001A201A10185
:100478002E30A4001430A300FF30A600FF30A500E2
:10048800A8010130A700AA01A9018030AB0008002B
:100498003B009C019D0120309E009F01A00192011C
:1004A80091012E30940014309300FF309600FF30F5
:1004B80095009801013097009A01990180309B00BE
:1004C800080081316321823182318A22823182316E
:1004D800CB22823182314C228231823133228231E5
:1004E80082310122823182311A22823108002000B1
:1004F800360837040319812A822A872A37088A008E
:1005080036080A00823127001912080070302100CD
:10051800990098012200960121001A1F942A952A11
:10052800902A08002700191E9A2A9B2A9E2A82319F
:100538007B2282310800E0342E34E0342E34E0345B
:100548002E34E0342E34FE0012001E00FE0BA82AC2
:10055800003420003308B7003208B60008007108DC
:100568003B00C4007008C300080071083B00B400D9
:100578007008B300080071083B00A4007008A300CD
:10058800080071083B0094007008930008001030C0
:100598002100970008003B00CB1708003B00CF174D
:1005A80008003B00BB1708003B00BF1708003B00D2
:1005B800AB1708003B00AF1708003B009B1708006B
:0805C8003B009F17080008002A
:020000040001F9
:04000E00BC3FFF1FD5
:00000001FF
