:040000008031132810
:100008007E1480318B1D09280A2811280B1C0D2805
:100018000E2811288231672280317E100900803134
:10002800152870308400823085002B30860000301F
:1000380087000830823178228031A001A101A20115
:10004800A301A401A501A601A701A801A901AA016C
:100058007E1020008031E428F4017435203E8600AB
:100068008701403FF700413FF80007307802D03061
:10007800031977020318412842284328E3285530FA
:100088007802F13003197702031C4B284C284D28BD
:10009800E32874352B3E86008701403FF500413F39
:1000A800F6007508760403195A285B2899287608FB
:1000B8007802031D612875087702031864286528EB
:1000C8007A2877087502F2007808763BF30000304A
:1000D8007302C93003197202031C732874287A2822
:1000E8007508383EF700FF30763DF800780876024C
:1000F800031D802877087502031883288428992807
:1001080075087702F2007608783BF3000030730236
:10011800C93003197202031C92289328992875087C
:10012800C83EF7000030763DF80074352B3E860057
:1001380087017708C03F7808C13F0130F200720894
:10014800F40704307402031CAA28AB2831282000C5
:100158002C08F1002B08F000823196228031200013
:100168002E08F1002D08F000823190228031200005
:100178003008F1002F08F00082318A2280312000F7
:100188003208F1003108F000823184228031823156
:10019800B52280318231AF2280318231A92280316B
:1001A8008231A32280318231B22280318231AC2265
:1001B80080318231A62280318231A022803108002C
:1001C8008231362280319F302000B3000130B400E4
:1001D80082317E2280312000AA012A352B3E8600FA
:1001E8008701E030C03F2E30C13F2A35203E8600CF
:1001F8008701E030C03F2E30C13F0130B5003508DF
:10020800AA0704302A02031C0A290B29F128220014
:100218008E160E150C168B170B178E17053020002F
:10022800B6000F30B500F130890B1829B50B182925
:10023800B60B182922008E13640020002908031D1C
:10024800262927293B298C1E2A292B2939290130BF
:10025800B5003508A8070A302802031C34293529B7
:100268005629A801A901A90A5629A801562929032E
:10027800031D3F29402952298C1E43294429452919
:1002880039290130B5003508A80732302802031C87
:100298004E294F2956290230A900562922000E114D
:1002A8008E120C1268302000B500E430890B5A29F0
:1002B800B50B5A29000020298031132822008C010F
:1002C8008D018E012A3021008C008D0158308E005E
:1002D80023008E018D0102308C0024008D018C01D9
:1002E8008E012100951725008C018D018E01373074
:1002F80026008C00F0308D00FF308E003F30270044
:100308008C00F0308D00FF308E001912181217166D
:10031800B8302000B3000230B40082317E2281312F
:100328008B1504303D00A00006309D0005309C0070
:10033800033090000800FC01FA01FB0120008E1D2B
:10034800A629A729A2290310FA0D8E19AC29AD29CF
:10035800A9290E0E890C890C0139F9007908FA04CB
:100368000130F9007908FB0708307B02031CBD291E
:10037800BE29A2297C08203E860087017A088100D0
:100388000130F9007908FC0708307C02031CCD29EC
:10039800CE29A02980313020813108003B00CC01D2
:1003A800CD012030CE00CF01D001C201C1012E30D5
:1003B800C4001430C300FF30C600FF30C500C801B8
:1003C8000130C700CA01C9018030CB0008003B00DA
:1003D800BC01BD012030BE00BF01C001B201B101A6
:1003E8002E30B4001430B300FF30B600FF30B50033
:1003F800B8010130B700BA01B9018030BB0008006C
:100408003B00AC01AD012030AE00AF01B001A2014C
:10041800A1012E30A4001430A300FF30A600FF3045
:10042800A500A8010130A700AA01A9018030AB00EE
:1004380008003B009C019D0120309E009F01A00107
:10044800920191012E30940014309300FF309600F1
:10045800FF3095009801013097009A01990180308A
:100468009B00080081316221823182315B22823116
:1004780082319C22823182311D22823182310422D2
:1004880082318131D22182318131EB2182310800E0
:100498002000370838040319522A532A582A3808E2
:1004A8008A0037080A0082312700191208007030C4
:1004B8002100990098012200960121001A1F652A3F
:1004C800662A612A08002700191E6B2A6C2A6F2ADF
:1004D80082314C2282310800E0342E34E0342E344C
:1004E800E0342E34E0342E34FE0012001E00FE0BE1
:1004F800792A003420003408B8003308B70008000F
:1005080071083B00C4007008C300080071083B0074
:10051800B4007008B300080071083B00A40070081C
:10052800A300080071083B009400700893000800BD
:1005380010302100970008003B00CB1708003B0053
:10054800CF1708003B00BB1708003B00BF17080087
:100558003B00AB1708003B00AF1708003B009B1798
:0A05680008003B009F170800080080
:020000040001F9
:04000E00BC3FFF1FD5
:00000001FF
