:040000008031132810
:100008007E1480318B1D09280A2811280B1C0D2805
:100018000E28112882315D2280317E10090080313E
:10002800152866308400823085002B308600003029
:100038008700083082316E228031A001A101A2011F
:10004800A301A401A501A601A701A801A901AA016C
:100058007E1020008031E428F4017435203E8600AB
:100068008701403FF700413FF80007307802D03061
:10007800031977020318412842284328E3285530FA
:100088007802F13003197702031C4B284C284D28BD
:10009800E32874352B3E86008701403FF500413F39
:1000A800F6007508760403195A285B2899287608FB
:1000B8007802031D612875087702031864286528EB
:1000C8007A2877087502F2007808763BF30000304A
:1000D8007302C93003197202031C732874287A2822
:1000E8007508383EF700FF30763DF800780876024C
:1000F800031D802877087502031883288428992807
:1001080075087702F2007608783BF3000030730236
:10011800C93003197202031C92289328992875087C
:10012800C83EF7000030763DF80074352B3E860057
:1001380087017708C03F7808C13F0130F200720894
:10014800F40704307402031CAA28AB2831282000C5
:100158002C08F1002B08F00082318C22803120001D
:100168002E08F1002D08F00082318622803120000F
:100178003008F1002F08F000823180228031200001
:100188003208F1003108F00082317A228031823160
:10019800AB2280318231A522803182319F22803189
:1001A8008231992280318231A82280318231A22283
:1001B800803182319C228031823196228031080040
:1001C80082312C22803191302000B3000130B400FC
:1001D8008231742280312000AA012A352B3E860004
:1001E8008701E030C03F2E30C13F2A35203E8600CF
:1001F8008701E030C03F2E30C13F0130B5003508DF
:10020800AA0704302A02031C0A290B29F128220014
:100218008E160E150C168B170B1764002000290874
:10022800031D172918292C298C1E1B291C292A294A
:100238000130B5003508A8070A302802031C252913
:1002480026294729A801A901A90A4729A801472958
:100258002903031D3029312943298C1E34293529C6
:1002680036292A290130B5003508A8073230280276
:10027800031C3F29402947290230A90047292200A9
:100288000E118E120C1268302000B500E430890B74
:100298004B29B50B4B290000112980311328220066
:1002A8008C018D018E012E3021008C008D015A3079
:1002B8008E00023023008E008D0106308C00240051
:1002C8008D018C018E012100951725008C018D016F
:1002D8008E01373026008C00F0308D00FF308E0004
:1002E8003F3027008C00F0308D00FF308E0019124F
:1002F80018121716AE302000B3000230B400823155
:10030800742281318B1504303D00A00006309D0019
:1003180005309C0003309000080022008E17FC0175
:10032800FA01FB0120008E1D9A299B2996290310AA
:10033800FA0D8E19A029A1299D290E0E890C890C68
:100348000139F9007908FA040130F9007908FB0746
:1003580008307B02031CB129B22996297C08203E6B
:10036800860087017A0881000130F9007908FC07C6
:1003780008307C02031CC129C2299429803130200D
:10038800813122008E1308003B00CC01CD012030C2
:10039800CE00CF01D001C201C1012E30C4001430FB
:1003A800C300FF30C600FF30C500C8010130C700D8
:1003B800CA01C9018030CB0008003B00BC01BD0167
:1003C8002030BE00BF01C001B201B1012E30B4001F
:1003D8001430B300FF30B600FF30B500B80101306B
:1003E800B700BA01B9018030BB0008003B00AC017E
:1003F800AD012030AE00AF01B001A201A1012E3045
:10040800A4001430A300FF30A600FF30A500A80107
:100418000130A700AA01A9018030AB0008003B0009
:100428009C019D0120309E009F01A0019201910135
:100438002E30940014309300FF309600FF30950062
:100448009801013097009A01990180309B000800BB
:10045800813153218231823151228231823192227B
:1004680082318231132282318131FA218231813104
:10047800C82182318131E12182310800200036080B
:1004880037040319482A492A4E2A37088A003608A9
:100498000A008231270019120800703021009900E3
:1004A80098012200960121001A1F5B2A5C2A572A0C
:1004B80008002700191E612A622A652A8231422211
:1004C80082310800E0342E34E0342E34E0342E3407
:1004D800E0342E34FE0012001E00FE0B6F2A00349A
:1004E80020003408B7003308B600080071083B0044
:1004F800C4007008C300080071083B00B40070080D
:10050800B300080071083B00A4007008A3000800AD
:1005180071083B0094007008930008001030210017
:10052800970008003B00CB1708003B00CF170800D6
:100538003B00BB1708003B00BF1708003B00AB1788
:1005480008003B00AF1708003B009B1708003B0062
:060558009F1708000800D7
:020000040001F9
:04000E00BC3FFF1FD5
:00000001FF
